S00C00006770696F2E7372656369
S11300000C9434000C943E000C943E000C943E007E
S11300100C943E000C943E000C943E000C943E0064
S11300200C943E000C943E000C943E000C943E0054
S11300300C943E000C943E000C943E000C943E0044
S11300400C943E000C943E000C943E000C943E0034
S11300500C943E000C943E000C943E000C943E0024
S11300600C943E000C943E0011241FBECFEFD8E048
S1130070DEBFCDBF0E9480000C94B9000C94000038
S1130080FC01408121E030E002C0220F331F6A9559
S1130090E2F7242B20830895FC01808121E030E0E5
S11300A002C0220F331F6A95E2F7922F909589239D
S11300B080838181282B21830895FC01908121E094
S11300C030E002C0220F331F6A95E2F720952923FE
S11300D020830895FC01408121E030E002C0220F1A
S11300E0331F6A95E2F7242720830895FC01808159
S11300F090E002C0959587956A95E2F7817008951E
S113010065E084E290E00E94400065E085E290E0D2
S11301100E945D0060E087E290E00E94400060E0A1
S113012088E290E00E945D0060E08AE290E00E9434
S11301304C0060E08BE290E00E94760060E08AE28E
S113014090E00E9476008111F9CF2FEF89E698E1C3
S1130150215080409040E1F700C0000065E084E257
S113016090E00E946A0060E087E290E00E946A00EA
S1090170E5CFF894FFCF77
S9030000FC
