S00F000030325F6C6564732E73726563AC
S11300000C9434000C943E000C943E000C943E007E
S11300100C943E000C943E000C943E000C943E0064
S11300200C943E000C943E000C943E000C943E0054
S11300300C943E000C943E000C943E000C943E0044
S11300400C943E000C943E000C943E000C943E0034
S11300500C943E000C943E000C943E000C943E0024
S11300600C943E000C943E0011241FBECFEFD8E048
S1130070DEBFCDBF0E9440000C945F000C940000D2
S1130080259A2D98399A419820E292E03FEF49E66B
S113009088E1315040408040E1F700C0000085B164
S11300A0822785B988B1892788B93FEF49E688E175
S11300B0315040408040E1F700C00000E7CFF894A1
S10500C0FFCF6C
S9030000FC
