S015000030342D696E74657272757074732E737265631E
S11300000C9434000C9449000C9449000C9449005D
S11300100C9449000C9449000C9449000C94490038
S11300200C9449000C9449000C9449000C94490028
S11300300C9449000C94A7000C9449000C944900BA
S11300400C9449000C9449000C9449000C94490008
S11300500C9449000C9449000C9449000C944900F8
S11300600C9449000C94490011241FBECFEFD8E032
S1130070DEBFCDBF11E0A0E0B1E0E8EDF1E002C0E9
S113008005900D92A230B107D9F70E9470000C942C
S1130090EA000C940000FC01408121E030E002C041
S11300A0220F331F6A95E2F7242B20830895FC0165
S11300B0908121E030E002C0220F331F6A95E2F7FD
S11300C02095292320830895FC01408121E030E01C
S11300D002C0220F331F6A95E2F7242B2083089570
S11300E065E084E290E00E944B0065E085E290E0E8
S11300F00E94640064E084E290E00E944B0064E0AB
S113010085E290E00E94640063E084E290E00E9453
S11301104B0063E085E290E00E94640062E084E2C8
S113012090E00E944B0062E085E290E00E9464004F
S1130130E1E8F0E080818B7F80838081836080832D
S1130140EFE6F0E08081816080837894FFCF1F9296
S11301500F920FB60F9211242F933F934F935F93F7
S11301606F937F938F939F93AF93BF93EF93FF937B
S11301706091010185E290E00E94570060910101C5
S113018080910001681B85E290E00E9464008091E8
S11301900101853021F49FEF9093000105C0823066
S11301A019F491E09093000190910001890F8093DC
S11301B00101FF91EF91BF91AF919F918F917F9139
S11301C06F915F914F913F912F910F900FBE0F90C0
S10B01D01F901895F894FFCF6D
S10501D801021E
S9030000FC
