:100000000C9434000C943E000C943E000C943E0082
:100010000C943E000C943E000C943E000C943E0068
:100020000C943E000C943E000C943E000C943E0058
:100030000C943E000C943E000C943E000C943E0048
:100040000C943E000C943E000C943E000C943E0038
:100050000C943E000C943E000C943E000C943E0028
:100060000C943E000C943E0011241FBECFEFD8E04C
:10007000DEBFCDBF0E9440000C9423010C94000011
:1000800084B1806284B985B18F7D85B985B18F7D5A
:1000900085B995B180E2982795B92FEF31EF9BE2B2
:1000A000215030409040E1F700C0000095B19F7DA5
:1000B00095B92FEF35EA9EE0215030409040E1F7AE
:1000C00000C0000095B1982795B92FEF35EA9EE062
:1000D000215030409040E1F700C0000095B19F7D75
:1000E00095B92FEF35EA9EE0215030409040E1F77E
:1000F00000C0000095B1982795B92FEF35EA9EE032
:10010000215030409040E1F700C0000095B19F7D44
:1001100095B92FEF31EF9BE2215030409040E1F74D
:1001200000C0000095B1982795B92FEF35EA9EE001
:10013000215030409040E1F700C0000095B19F7D14
:1001400095B92FEF31EF9BE2215030409040E1F71D
:1001500000C0000095B1982795B92FEF35EA9EE0D1
:10016000215030409040E1F700C0000095B19F7DE4
:1001700095B92FEF35EA9EE0215030409040E1F7ED
:1001800000C0000095B1982795B92FEF35EA9EE0A1
:10019000215030409040E1F700C0000095B19F7DB4
:1001A00095B92FEF35EA9EE0215030409040E1F7BD
:1001B00000C0000095B1982795B92FEF31EF9BE271
:1001C000215030409040E1F700C0000095B19F7D84
:1001D00095B92FEF35EA9EE0215030409040E1F78D
:1001E00000C0000095B1982795B92FEF31EF9BE241
:1001F000215030409040E1F700C0000095B19F7D54
:1002000095B92FEF35EA9EE0215030409040E1F75C
:1002100000C0000095B1892785B92FEF31EF8BE23F
:10022000215030408040E1F700C0000085B18F7D53
:1002300085B99FEF29E836E6915020403040E1F73C
:0A02400000C0000023CFF894FFCFA8
:00000001FF
