S012000030352D7365676D656E742E737265638D
S11300000C9434000C9451000C9451000C94510045
S11300100C9451000C9451000C9451000C94510018
S11300200C9451000C9451000C9451000C94510008
S11300300C9451000C948D000C9451000C945100BC
S11300400C94AB000C9451000C9451000C9451008E
S11300500C9451000C9451000C9451000C945100D8
S11300600C9451000C94510011241FBECFEFD8E022
S1130070DEBFCDBF11E0A0E0B1E0EEEAF2E002C0E5
S113008005900D92AE30B107D9F721E0AEE0B1E0B2
S113009001C01D92A131B207E1F70E9478000C94CF
S11300A055010C940000FC01408121E030E002C0C5
S11300B0220F331F6A95E2F7242B20830895FC0155
S11300C0908121E030E002C0220F331F6A95E2F7ED
S11300D02095292320830895FC01408121E030E00C
S11300E002C0220F331F6A95E2F7242B2083089560
S11300F00E94DF0060E083E00E940201E1E8F0E09A
S113010080818B7F8083808183608083EFE6F0E051
S11301108081816080837894FFCF1F920F920FB605
S11301200F9211248F93809110018F5F809310019F
S11301308A3059F480910F018F5F80930F011092E0
S11301401001863011F410920F018F910F900FBEA1
S11301500F901F9018951F920F920FB60F921124B3
S11301602F933F934F935F936F937F938F939F93BB
S1130170AF93BF93EF93FF9360910E01611108C099
S1130180809110010E94020181E080930E0106C05B
S113019080910F010E94020110920E01FF91EF91D4
S11301A0BF91AF919F918F917F916F915F914F918B
S11301B03F912F910F900FBE0F901F90189564E000
S11301C08AE290E00E94530067E08AE290E00E9495
S11301D0530060E084E290E00E945300089585E0BB
S11301E08A95F1F7000067E08BE290E00E946C00D2
S11301F085E08A95F1F7000067E08BE290E00E94C9
S11302005F0008951F93CF93DF93E82FF0E0EC5F36
S1130210FE4F1081E62FF0E0E050FF4FD08164E004
S11302208BE290E00E945F0067E08BE290E00E9426
S11302305F0060E085E290E00E945F0085E08A95BF
S1130240F1F70000C8E010FF06C060E085E290E02E
S11302500E946C0005C060E085E290E00E945F00AF
S11302600E94EF001695C15071F7C8E0D0FF06C098
S113027060E085E290E00E946C0005C060E085E2E9
S113028090E00E945F000E94EF00D695C15071F784
S113029064E08BE290E00E946C0085E08A95F1F7BF
S11102A00000DF91CF911F910895F894FFCFD5
S11102AE10204080039F250D9949411F01092E
S9030000FC
