:100000000C9434000C9451000C9451000C94510049
:100010000C9451000C9451000C9451000C9451001C
:100020000C9451000C9451000C9451000C9451000C
:100030000C9451000C948D000C9451000C945100C0
:100040000C9497000C9451000C9451000C945100A6
:100050000C9451000C9451000C9451000C945100DC
:100060000C9451000C94510011241FBECFEFD8E026
:10007000DEBFCDBF11E0A0E0B1E0E2E3F2E002C0FC
:1000800005900D92AE30B107D9F721E0AEE0B1E0B6
:1000900001C01D92AE30B207E1F70E9478000C94C7
:1000A00017010C940000FC01408121E030E002C007
:1000B000220F331F6A95E2F7242B20830895FC0159
:1000C000908121E030E002C0220F331F6A95E2F7F1
:1000D0002095292320830895FC01408121E030E010
:1000E00002C0220F331F6A95E2F7242B2083089564
:1000F0000E94A10060E083E00E94C400E1E8F0E01B
:1001000080818B7F8083808183608083EFE6F0E055
:100110008081816080837894FFCF1F920F920FB609
:100120000F9211240F900FBE0F901F9018951F92E1
:100130000F920FB60F9211240F900FBE0F901F90C9
:10014000189564E08AE290E00E94530067E08AE23A
:1001500090E00E94530060E084E290E00E9453002F
:10016000089585E08A95F1F7000067E08BE290E062
:100170000E946C0085E08A95F1F7000067E08BE251
:1001800090E00E945F0008951F93CF93DF93E82FC4
:10019000F0E0EC5FFE4F1081E62FF0E0E050FF4F03
:1001A000D08164E08BE290E00E945F0067E08BE228
:1001B00090E00E945F0060E085E290E00E945F00B6
:1001C00085E08A95F1F70000C8E010FF06C060E006
:1001D00085E290E00E946C0005C060E085E290E05E
:1001E0000E945F000E94B1001695C15071F7C8E0EF
:1001F000D0FF06C060E085E290E00E946C0005C080
:1002000060E085E290E00E945F000E94B100D69518
:10021000C15071F764E08BE290E00E946C0085E0D1
:100220008A95F1F70000DF91CF911F910895F8941E
:02023000FFCFFE
:0E02320010204080039F250D9949411F0109AE
:00000001FF
