:100000000C9434000C943E000C943E000C943E0082
:100010000C943E000C943E000C943E000C943E0068
:100020000C943E000C943E000C943E000C943E0058
:100030000C943E000C943E000C943E000C943E0048
:100040000C943E000C943E000C943E000C943E0038
:100050000C943E000C943E000C943E000C943E0028
:100060000C943E000C943E0011241FBECFEFD8E04C
:10007000DEBFCDBF0E9440000C9466000C940000CF
:1000800084B1806284B985B1806285B987B18260AC
:1000900087B988B18D7F88B98AB18B7F8AB98BB1D6
:1000A00084608BB94A9BFECF95B180E2892785B9E0
:1000B00098B182E0892788B92FEF89E698E121502D
:1000C00080409040E1F700C00000ECCFF894FFCFF3
:00000001FF
