S00E000030382D6932432E73726563A3
S11300000C9434000C9451000C9451000C94510045
S11300100C9451000C9451000C9451000C94510018
S11300200C9451000C9451000C9451000C94510008
S11300300C9451000C946C000C9451000C945100DD
S11300400C9451000C9451000C9431010C945F01F8
S11300500C9451000C9451000C9451000C945100D8
S11300600C9451000C94510011241FBECFEFD8E022
S1130070DEBFCDBF11E0A0E0B1E0EAEFF3E002C0E3
S113008005900D92A034B107D9F721E0A0E4B1E0C6
S113009001C01D92A638B207E1F70E9453000C94E8
S11300A0FB010C9400000E94000187E690E00E948E
S11300B08901E1E8F0E080818A7F80838081826029
S11300C08083EFE6F0E0808181608083789482E031
S11300D091E00E94B701FFCF1F920F920FB60F92CB
S11300E011241F932F933F934F935F936F937F93A9
S11300F08F939F93AF93BF93EF93FF93CF93DF932C
S113010000D0CDB7DEB780E390E39A8389838091F2
S11301100101823061F1833009F43FC0813009F07C
S113012056C08091000191E0980F90930001875090
S1130130803720F482E0809301014CC0983789F421
S113014080E291E00E94B701809140014AE0BE0143
S11301506F5F7F4F90E00E94C601CE0101960E941E
S1130160B7011092000181E08093010133C08091B6
S11301700001880F0E940F01182F0E942D011111F8
S113018004C083E08093010125C088E391E00E94CC
S1130190B70181E0809301011DC08091000140E11D
S11301A0BE016F5F7F4F90E00E94C601CE010196B1
S11301B00E94B7018DE391E00E94B7018091400154
S11301C08F5F8093400181E08093010103C081E04F
S11301D0809301010F900F90DF91CF91FF91EF91E8
S11301E0BF91AF919F918F917F916F915F914F914B
S11301F03F912F911F910F900FBE0F901F90189554
S113020087B18F7C87B988B1806388B9E9EBF0E066
S113021080818C7F808388E98093B800089594EA74
S11302209093BC00ECEBF0E090819923ECF7809381
S1130230BB0084E88093BC00ECEBF0E08081882371
S1130240ECF79091B900987F983129F081E09034CF
S113025019F480E0089580E0089584E98093BC0057
S113026008951F920F920FB60F9211242F938F931C
S11302709F93EF93FF938091C0002091C6008C71EF
S1130280E0914301EF5FEF7190914201E91739F07A
S1130290E0934301F0E0EA5BFE4F208301C082E07B
S11302A090914101892B80934101FF91EF919F919E
S11302B08F912F910F900FBE0F901F9018951F9242
S11302C00F920FB60F9211248F939F93EF93FF9386
S11302D09091450180914401981769F0E09144019F
S11302E0EF5FEF71E0934401F0E0EA59FE4F808143
S11302F08093C60005C0E1ECF0E080818F7D8083AF
S1130300FF91EF919F918F910F900FBE0F901F90CF
S113031018951092450110924401109243011092D5
S1130320420199231CF422E02093C000907890931A
S1130330C5008093C40088E98093C10086E080935F
S1130340C2000895209145012F5F2F7190914401BF
S11303502917E1F3E22FF0E0EA59FE4F808320935E
S11303604501E1ECF0E08081806280830895CF93C1
S1130370DF93EC018881882331F021960E94A20149
S113038089918111FBCFDF91CF910895BB274A302A
S113039031F4992322F4BDE2909581959F4F0C94FA
S11303A0D201BB27FB015527AA27880F991FAA1F33
S11303B0A41710F0A41B83955051B9F7A05DAA337C
S11303C008F0A95DA193009779F7B111B193119247
S11303D0CB010C94EB01DC01FC01672F71917723B5
S11303E0E1F7329704C07C916D9370836291AE17EC
S10D03F0BF07C8F30895F894FFCF87
S11303FA07010D0A5363616E204932432D627573F6
S113040A20666F7220646576696365733A0D0A0023
S113041A0D0A0D4E756D626572206F6620646576ED
S113042A69636573203A2000202D2D2000202000C6
S9030000FC
